:040000008031CB2858
:1000060030347E14803120007F08FB00911E682862
:1000160023009D1C24281D121D164530FA007A085F
:10002600F1005230FA007A08F2004F30FA007A08EE
:10003600F3005630FA007A08F400713096312F2614
:10004600803123001908FA0020004D08203E860062
:10005600013087007A088100253022002006031D22
:100066004E2801302000CD070030CE3D4E08803AA4
:10007600FA0080307A02031D422810304D02031C1C
:10008600682801302100C8000030C9002000CD01D9
:10009600CE019112682823001D121D162000CD01E5
:1000A600CE014530FA007A08F1005230FA007A089B
:1000B600F2005230FA007A08F3005830FA007A0853
:1000C600F400713096312F2680312000941EC62808
:1000D6002900951C8428151215164530FA007A0851
:1000E600F1005230FA007A08F2004F30FA007A082E
:1000F600F3005630FA007A08F400713096312F2654
:10010600803129001108FA0020004B08A03E860025
:10011600013087007A088100283023002006031D5D
:10012600AD2801302000CB070030CC3D4C08803A8A
:10013600FA0080307A02083003194B02031CC628E5
:1001460001302100C6000030C7002000CB01CC01E1
:100156009412C6282900151215162000CB01CC01D1
:100166004530FA007A08F1005230FA007A08F200B7
:100176005230FA007A08F3005430FA007A08F40094
:10018600713096312F267B082000FF007E10090073
:100196008031CD2838308400873085006E30860067
:1001A600223087000030FF0082309531C52580312E
:1001B600FA30840087308500703086000030870072
:1001C6000030FF0006309531C5258031803103208F
:1001D6008031E300C230840096308500A03086006E
:1001E600003087000030FF0024309531C52580316E
:1001F6004A30840097308500203086000130870021
:100206000030FF0050309531C5258031BA3084006A
:1002160087308500A0308600013087000030FF005F
:1002260040309531C52580314B3084000030850043
:100236001830FE000030FF009531B9258031C430FA
:100246008400003085001C30FE000030FF00953130
:10025600B9257E1020008831AB282000BA00C101E4
:10026600C201C301C401B801B901BF01C001210027
:1002760043082000BC00210042082000BB002100EA
:1002860041082000BE00210040082000BD003A08B9
:10029600B4003408BB002E08B4003408BC003B3060
:1002A60088314020813120002708C2002608C1007D
:1002B6002F08D03EC300FF3003180030C4003008BA
:1002C600B4003408BD003108B4003408BE003D3027
:1002D60088314020813120002708B9002608B8005F
:1002E6003208B4004108C03E860001308700340859
:1002F60081004108C03E8600013087000108B40035
:100306004108A03E86008701340881004208B500F6
:100316004108B400B435B50DB435B50D3408FC3E0E
:10032600BF00FF30353DC0006E30B4002230B5004E
:100336003F083407B6004008353DB700360886004A
:1003460037088700473081000130BF070030C03DC5
:100356006E30B4002230B5003F083407B6004008BE
:10036600353DB70036088600370887002F0881001C
:100376000130BF070030C03D6E30B4002230B500FA
:100386003F083407B6004008353DB70036088600FA
:10039600370887003A0881000130BF070030C03DAA
:1003A6006E30B4002230B5003F083407B60040086E
:1003B600353DB70036088600370887002E088100CD
:1003C600FD30BF07FF30C03D31303306031D932C8F
:1003D6006E30B4002230B5003F083407A000400854
:1003E600353DA10096316426813107302000410653
:1003F60042040319612A1A302000B400F830890B30
:10040600022AB40B022A0000283029009200063086
:100416002000B4003030890B0E2AB40B0E2A0000DF
:1004260066302900920006302000B4003030890B77
:100436001A2AB40B1A2A000020002E08103E2900A2
:10044600920006302000B4003030890B282AB40B05
:10045600282A000020002F082900920006302000DC
:10046600B4003030890B352AB40B352A0000303001
:100476002900920006302000B4003030890B412A52
:10048600B40B412A000030302900920006302000CB
:10049600B4003030890B4D2AB40B4D2A00003030A1
:1004A6002900920006302000B4003030890B592A0A
:1004B600B40B592A00002930290092000730200089
:1004C600410642040319CB2A932C3030B400340879
:1004D600A0003030B5003508A100503097319A277A
:1004E6008131932C303020003006031D862A3130AE
:1004F600B4003408A0003130B5003508A1005030F2
:1005060097319A278131323020003006031D972A11
:100516003130B4003408A0003130B5003508A100F0
:10052600503097319A278131353020003006031D2F
:10053600A82A3130B4003408A0003230B50035089E
:10054600A100503097319A2781313730200030068C
:10055600031DB92A3130B4003408A0003330B50089
:100566003508A100503097319A2781313930200063
:100576003006031D932C3130B4003408A00034300B
:10058600B5003508A100503097319A278131932C58
:1005960020004408003A0319D12A932C4308003A54
:1005A6000319682A013A0319752A932C932C431CC4
:1005B600DF2A20008D14080020008D100800431C3F
:1005C600E72A20008E14080020008E100800431C25
:1005D600EF2A20000C14080020000C100800431C11
:1005E600F72A25008C14080025008C100800431CEF
:1005F600FF2A20008C15080020008C110800431CDF
:10060600072B20008C14080020008C1008004308DB
:100616004404031D4A2B0D120B302000B500263072
:10062600B4005D30890B152BB40B152BB50B152BB0
:10063600003220000D110B302000B5002630B4002A
:100646005D30890B242BB40B242BB50B242B0032E5
:1006560020000D100B302000B5002630B4005D30B0
:10066600890B332BB40B332BB50B332B0032200005
:100676000C160B302000B5002630B4005D30890B17
:10068600422BB40B422BB50B422B00320800200044
:1006960043034404031D080030303006031D8F2B2E
:1006A6000D120B302000B5002630B4005D30890BEA
:1006B6005A2BB40B5A2BB50B5A2B003220000D11B6
:1006C6000B302000B5002630B4005D30890B692B55
:1006D600B40B692BB50B692B003220000D100B30C3
:1006E6002000B5002630B4005D30890B782BB40BA2
:1006F600782BB50B782B003220000C160B3020001F
:10070600B5002630B4005D30890B872BB40B872BE0
:10071600B50B872B00320800323020003006031D4F
:10072600D02B0D110B302000B5002630B4005D3003
:10073600890B9B2BB40B9B2BB50B9B2B00322000FC
:100746000D100B302000B5002630B4005D30890B4B
:10075600AA2BB40BAA2BB50BAA2B003220000C1621
:100766000B302000B5002630B4005D30890BB92B64
:10077600B40BB92BB50BB92B003220000D160B307C
:100786002000B5002630B4005D30890BC82BB40BB1
:10079600C82BB50BC82B00320800353020003006B8
:1007A600031D112C0D120B302000B5002630B400AD
:1007B6005D30890BDC2BB40BDC2BB50BDC2B00324C
:1007C60020000D100B302000B5002630B4005D303F
:1007D600890BEB2BB40BEB2BB50BEB2B003220006C
:1007E6000D150B302000B5002630B4005D30890BA6
:1007F600FA2BB40BFA2BB50BFA2B003220000C1691
:100806000B302000B5002630B4005D30890B092C72
:10081600B40B092CB50B092C003208003730200028
:100826003006031D522C0D100B302000B50026306B
:10083600B4005D30890B1D2CB40B1D2CB50B1D2C83
:10084600003220000D160B302000B5002630B40013
:100856005D30890B2C2CB40B2C2CB50B2C2C0032B8
:1008660020000D150B302000B5002630B4005D3099
:10087600890B3B2CB40B3B2CB50B3B2C00322000D8
:100886000C160B302000B5002630B4005D30890B05
:100896004A2CB40B4A2CB50B4A2C003208003930CE
:1008A60020003006031D08000D120B302000B50095
:1008B6002630B4005D30890B5E2CB40B5E2CB50B74
:1008C6005E2C003220000D110B302000B5002630C2
:1008D600B4005D30890B6D2CB40B6D2CB50B6D2CF3
:1008E600003220000D140B302000B5002630B40075
:1008F6005D30890B7C2CB40B7C2CB50B7C2C003228
:1009060020000C160B302000B5002630B4005D30F8
:10091600890B8B2CB40B8B2CB50B8B2C003208005F
:1009260020004208003A0319992CA62C4108FF3EE4
:10093600031C0800840008300402031808009031E4
:100946000435003E820008002000AC000130DD00C6
:100956000030DE0001302100D8000030D90001301F
:10096600D6000030D7000130D4000030D500013069
:10097600D2000030D3000130D0000030D100013069
:10098600CE000030CF000130CC000030CD0020007A
:10099600AA01AB012308D03EAF00FF300318003098
:1009A600B0002408D03EAD00FF3003180030AE0082
:1009B6002C08C03EA800FF3003180030A900280804
:1009C600303EA5002508A70061036204031DF12C33
:1009D600E101E2010230AA000030AB005F036004CF
:1009E600031D080002302A062B0403190800210003
:1009F600DA01DB012000E101E201AA01AB01DF011E
:100A0600E00102302100DE000030DF001E2F200052
:100A16005D035E04031D0800303021002106031D1E
:100A2600080031302000A5002508A00023088831E1
:100A36000B20843120002F1C232D20008D14252D02
:100A460020008D10DD01DE01080021005803590445
:100A5600031D080030302206031D08003230200036
:100A6600A5002508A000230888310B208431210029
:100A7600D801D90120002F1C432D20008E14080018
:100A860020008E100800210056035704031D08009D
:100A960030302306031D080033302000A50025084A
:100AA600A000230888310B20843120002F1C5E2DE6
:100AB60020000C14602D20000C10DD01DE01080062
:100AC600210054035504031D080030302406031D7D
:100AD600080034302000A5002508A000230888312E
:100AE6000B2084312100D401D50120002F1C7E2D3E
:100AF60025008C14080025008C10080021005203E4
:100B06005304031D080030302506031D0800353048
:100B16002000A5002508A000230888310B20843179
:100B26002100D201D30120002F1C9C2D20008C1502
:100B3600080020008C110800210050035104031DF9
:100B4600080030302606031D080036302000A500B8
:100B56002508A000230888310B2084312100D0010C
:100B6600D10120002F1CBA2D20008C140800200073
:100B76008C10080021004E034F04031D080030307E
:100B86002706031D080037302000A5002508A00011
:100B9600230888310B2084312100CE01CF01063095
:100BA6002000A5003030890BD62DA50BD62D0000D0
:100BB600303020002306031D172E06302000A50026
:100BC6003030890BE42DA50BE42D000020000D121A
:100BD60015302000A6004B30A500BE30890BF12D44
:100BE600A50BF12DA60BF12D000020000D111530DF
:100BF6002000A6004B30A500BE30890B002EA50BA9
:100C0600002EA60B002E000020000D10153020002F
:100C1600A6004B30A500BE30890B0F2EA50B0F2E5C
:100C2600A60B0F2E00000800313020002306031DFE
:100C360008002D032E04031D5C2E15302000A6008F
:100C46004B30A500BE30890B262EA50B262EA60BF3
:100C5600262E000020000C1615302000A6004B3072
:100C6600A500BE30890B352EA50B352EA60B352ECD
:100C7600000020000D1115302000A6004B30A50005
:100C8600BE30890B442EA50B442EA60B442E000025
:100C960020000D1015302000A6004B30A500BE30F8
:100CA600890B532EA50B532EA60B532E00002000A6
:100CB6000D1632302406031D9B2E03302000A6009D
:100CC6000830A5007730890B662EA50B662EA60B7D
:100CD600662E20000C1615302000A6004B30A5000D
:100CE600BE30890B742EA50B742EA60B742E000035
:100CF60020000D1215302000A6004B30A500BE3096
:100D0600890B832EA50B832EA60B832E00002000B5
:100D16000D1015302000A6004B30A500BE30890B03
:100D2600922EA50B922EA60B922E000020000D15DA
:100D360003302D062E04031DDB2E0C161530200065
:100D4600A6004B30A500BE30890BA72EA50BA72EFB
:100D5600A60BA72E000020000D1015302000A600BF
:100D66004B30A500BE30890BB62EA50BB62EA60BB2
:100D7600B62E000020000D1615302000A6004B30C0
:100D8600A500BE30890BC52EA50BC52EA60BC52EFC
:100D9600000020000D1515302000A6004B30A500E0
:100DA600BE30890BD42EA50BD42EA60BD42E000054
:100DB600043020002D062E04031D080015302000E7
:100DC600A6004B30A500BE30890BE72EA50BE72EFB
:100DD600A60BE72E000020000C1615302000A600FA
:100DE6004B30A500BE30890BF62EA50BF62EA60BB2
:100DF600F62E000020000D1215302000A6004B3004
:100E0600A500BE30890B052FA50B052FA60B052FB8
:100E1600000020000D1115302000A6004B30A50063
:100E2600BE30890B142FA50B142FA60B142F000010
:100E360020000D14080020002C08413A03190A2D41
:100E4600033A0319282D013A0319462D073A0319C7
:100E5600632D013A0319812D033A03199F2D163A82
:100E66000319BD2D372F0800080023340034003441
:100E760000340034003400340034003400340034CC
:100E860000340034003400340034003400340034BC
:100E960000340034003400340034003400340034AC
:100EA600003400340034003400340034003400349C
:100EB600003400340034003400340034003400348C
:100EC600003400340034003400340034003400347C
:100ED600003400340034003400340034003400346C
:100EE600003400340034003400340034003400345C
:100EF600003400340034003400340034003400344C
:100F0600003400340034003400340034003400343B
:100F1600003400340034003400340034003400342B
:100F2600003400340034003400340034003400341B
:100F3600003400340034003400340034003400340B
:100F460000340034003400340034003400340034FB
:100F560000340034003400340034003400340034EB
:100F660000340034003400340034003400342334B8
:100F760000340034003400340034003400340034CB
:100F860000340034003400340034003400340034BB
:100F960000340034003400340034003400340034AB
:100FA600003400340034003400340034003430346B
:100FB600303430343034303430343034303430340B
:100FC60030343034303430343034303430343034FB
:100FD60030343034303430343034303430343034EB
:100FE600303430343034303430343034003430340B
:0A0FF6002334233423342334003461
:10100A009631192688319631032608002000A2005D
:10101A001A302000A100F830890B1128A10B1128E1
:10102A000000473023009A0006302000A10030302B
:10103A00890B1D28A10B1D2800002000220823006F
:10104A009A0006302000A1003030890B2A28A10B13
:10105A002A280000303023009A0006302000A10020
:10106A003030890B3628A10B3628000020002008D2
:10107A0023009A0008002000AD002D088600870191
:10108A0020300106031D4E280130A8002808AD07AC
:10109A0042282D08860087010930010603194928CC
:1010AA00AB01AC01AA012D08860087012D3001068B
:1010BA00031D64280130A8002808AA076B282D08F8
:1010CA00860087012B300106031D6F280130A80016
:1010DA002808AD072D088600870101089531DF250C
:1010EA008831031C962820002C08A1002B08A00098
:1010FA000A30A2000030A300963148268831200029
:10110A002D088600870101082007A8002108031876
:10111A00210AA9002808D03EAB00FF30293DAC00C7
:10112A006B2820002A080319A6282B09A8002C09D5
:10113A00A900A80A0319A90A2808A6002908A700CD
:10114A0008002C08A7002B08A60008002930200058
:10115A00C6009630C5007F30890BB128C50BB1286F
:10116A00C60BB12896319E268831883105208831F0
:10117A0001302000DB000030DC000130D9000030F3
:10118A00DA000130D7000030D8000130D500003035
:10119A00D6000130D3000030D4000130D100003035
:1011AA00D2000130CF000030D00001302100CA0047
:1011BA000030CB0020000C160D120D110D1021006D
:1011CA00DE01DF01210048034904031DA329C801E8
:1011DA00C90101302000E1000030E2002100E001F5
:1011EA00E101E401E501253022002006031D5A2908
:1011FA0025302106031D5A2940302E06031D5A297F
:10120A0040302F06031D5A2925302006031D1A29AE
:10121A0025302106031D1A29210060086104031DD7
:10122A001A290130E4000030E500403022002E0681
:10123A00031D302940302F06031D30292100640385
:10124A006504031D30299631E62688312100E00124
:10125A00E101E401E501220059082000C500450822
:10126A00AE0022005A082000C6004608AF0022003D
:10127A005B082000C7004708B00022005C08200075
:10128A00C8004808B10022005D082000C9004908CA
:10129A00B20022005E082000CA004A08B3002200F9
:1012AA005808813130218831A32945302000C500F2
:1012BA004508F1005230C5004508F2004C30C5001F
:1012CA004508F3005330C5004508F40071309631E3
:1012DA008126883123009D131D122100E801E901AE
:1012EA006908803A2000C50080304502031D802924
:1012FA000F30210068020318A02923302000C500FE
:10130A0021006808203E8600013087002000450839
:10131A00810001302100E8070030E93D6908803A80
:10132A002000C50080304502031D9E290F30210090
:10133A006802031C822923001D169D1721004603FB
:10134A004704031D432A01302000DF000030E0007B
:10135A0001302100DE000030DF000130DA00003009
:10136A00DB00C601C701E201E301E601E70128301B
:10137A0023002006031DFA2929302706031DFA290E
:10138A0028302006031DD229210062086304031DA8
:10139A00D2290130E6000030E70029302300270671
:1013AA00031D432A210066036704031D432A97315C
:1013BA00182788314030220040060319432A410881
:1013CA002000C5004508A300220042082000C600EC
:1013DA004608A400220040088431A724883121004D
:1013EA00E201E301E601E701432A45302000C50096
:1013FA004508F1005230C5004508F2004C30C500DE
:10140A004508F3005330C5004508F40071309631A1
:10141A00812688312900951315122100EA01EB0172
:10142A006B08803A2000C50080304502031D202A3F
:10143A00083021006A020318402A23302000C50020
:10144A0021006A08A03E8600013087002000450876
:10145A00810001302100EA070030EB3D6B08803A39
:10146A002000C50080304502031D3E2A08302100B5
:10147A006A02031C222A2900151695170130210039
:10148A00EC000030ED000130DA000030DB003030D3
:10149A002106031DAD2A25000C19AD2A20005B0880
:1014AA005C04031DAD2A21006C036D04031DA52AEB
:1014BA001A302000C500F830890B612AC50B612A51
:1014CA000000523023009A0006302000C500303058
:1014DA00890B6D2AC50B6D2A0000303023009A0053
:1014EA0006302000C5003030890B792AC50B792ACD
:1014FA000000303023009A0006302000C50030304A
:10150A00890B852AC50B852A0000313023009A00F1
:10151A0006302000C5003030890B912AC50B912A6C
:10152A00000030302000C5004508A0003030C60059
:10153A004608A100413097319A27883120008D1042
:10154A002100EC01ED0101302000DB000030DC005D
:10155A00303021002106031D0D2B25000C1D0D2BFB
:10156A0020005B035C04031D0D2B21006C036D043A
:10157A00031D072B1A302000C500F830890BC32A37
:10158A00C50BC32A0000523023009A0006302000FF
:10159A00C5003030890BCF2AC50BCF2A0000313065
:1015AA0023009A0006302000C5003030890BDB2A60
:1015BA00C50BDB2A0000303023009A0006302000D9
:1015CA00C5003030890BE72AC50BE72A0000313005
:1015DA0023009A0006302000C5003030890BF32A18
:1015EA00C50BF32A000031302000C5004508A000D1
:1015FA003030C6004608A100413097319A27883119
:10160A0020008D142100EC01ED012000DB01DC013A
:10161A00303021002206031D6F2B25008C196F2BF9
:10162A00200059085A04031D6F2B21006C036D0416
:10163A00031D672B1A302000C500F830890B232BB5
:10164A00C50B232B0000523023009A0006302000DD
:10165A00C5003030890B2F2BC50B2F2B00003030E3
:10166A0023009A0006302000C5003030890B3B2B3E
:10167A00C50B3B2B0000303023009A0006302000B7
:10168A00C5003030890B472BC50B472B0000323081
:10169A0023009A0006302000C5003030890B532BF6
:1016AA00C50B532B000030302000C5004508A000B0
:1016BA003030C6004608A100423097319A27883157
:1016CA0020008E102100EC01ED0101302000D9002C
:1016DA000030DA00303021002206031DCF2B25000E
:1016EA008C1DCF2B200059035A04031DCF2B210038
:1016FA006C036D04031DC92B1A302000C500F83095
:10170A00890B852BC50B852B0000523023009A00CC
:10171A0006302000C5003030890B912BC50B912B68
:10172A000000313023009A0006302000C500303016
:10173A00890B9D2BC50B9D2B0000303023009A008E
:10174A0006302000C5003030890BA92BC50BA92B08
:10175A000000323023009A0006302000C5003030E5
:10176A00890BB52BC50BB52B000031302000C50005
:10177A004508A0003030C6004608A1004230973123
:10178A009A27883120008E142100EC01ED012000F7
:10179A00D901DA01303021002306031D312C25003E
:1017AA000C1A312C200057085804031D312C210033
:1017BA006C036D04031D292C1A302000C500F83073
:1017CA00890BE52BC50BE52B0000523023009A004C
:1017DA0006302000C5003030890BF12BC50BF12BE8
:1017EA000000303023009A0006302000C500303057
:1017FA00890BFD2BC50BFD2B0000303023009A000E
:10180A0006302000C5003030890B092CC50B092C85
:10181A000000333023009A0006302000C500303023
:10182A00890B152CC50B152C000030302000C50083
:10183A004508A0003030C6004608A1004330973161
:10184A009A27883120000C102100EC01ED010130AB
:10185A002000D7000030D800303021002306031DB5
:10186A00912C25000C1E912C200057035804031DAF
:10187A00912C21006C036D04031D8B2C1A3020005F
:10188A00C500F830890B472CC50B472C0000523095
:10189A0023009A0006302000C5003030890B532CF3
:1018AA00C50B532C0000313023009A00063020006B
:1018BA00C5003030890B5F2CC50B5F2C000030301F
:1018CA0023009A0006302000C5003030890B6B2CAB
:1018DA00C50B6B2C0000333023009A000630200021
:1018EA00C5003030890B772CC50B772C00003130BE
:1018FA002000C5004508A0003030C6004608A100F7
:10190A00433097319A27883120000C142100EC01CA
:10191A00ED012000D701D801303021002406031D33
:10192A00F32C25008C1AF32C200055085604031DAD
:10193A00F32C21006C036D04031DEB2C1A302000DC
:10194A00C500F830890BA72CC50BA72C0000523014
:10195A0023009A0006302000C5003030890BB32CD2
:10196A00C50BB32C0000303023009A00063020004B
:10197A00C5003030890BBF2CC50BBF2C000030309E
:10198A0023009A0006302000C5003030890BCB2C8A
:10199A00C50BCB2C0000343023009A0006302000FF
:1019AA00C5003030890BD72CC50BD72C000030303E
:1019BA002000C5004508A0003030C6004608A10036
:1019CA00443097319A27883125008C102100EC0188
:1019DA00ED0101302000D5000030D6003030210062
:1019EA002406031D532D25008C1E532D200055035C
:1019FA005604031D532D21006C036D04031D4D2D48
:101A0A001A302000C500F830890B092DC50B092DA5
:101A1A000000523023009A0006302000C500303002
:101A2A00890B152DC50B152D0000313023009A00A6
:101A3A0006302000C5003030890B212DC50B212D21
:101A4A000000303023009A0006302000C5003030F4
:101A5A00890B2D2DC50B2D2D0000343023009A0043
:101A6A0006302000C5003030890B392DC50B392DC1
:101A7A00000031302000C5004508A0003030C60003
:101A8A004608A100443097319A27883125008C14E2
:101A9A002100EC01ED012000D501D60130302100F2
:101AAA002506031DB42D25000C1BB42D2000530858
:101ABA005404031DB42D21006C036D04031DAC2DC9
:101ACA001A302000C500F830890B692DC50B692D25
:101ADA000000523023009A0006302000C500303042
:101AEA00890B752DC50B752D0000303023009A0027
:101AFA0006302000C5003030890B812DC50B812DA1
:101B0A000000303023009A0006302000C500303033
:101B1A00890B8D2DC50B8D2D0000353023009A00C1
:101B2A0006302000C5003030890B992DC50B992D40
:101B3A00000020008C113030C5004508A00030306C
:101B4A00C6004608A100453097319A2788312100FE
:101B5A00EC01ED0101302000D3000030D400303018
:101B6A0021002506031D142E25000C1F142E20000B
:101B7A0053035404031D142E21006C036D04031D2A
:101B8A000E2E1A302000C500F830890BCA2DC50B5D
:101B9A00CA2D0000523023009A0006302000C500EA
:101BAA003030890BD62DC50BD62D000031302300DD
:101BBA009A0006302000C5003030890BE22DC50B93
:101BCA00E22D0000303023009A0006302000C500C4
:101BDA003030890BEE2DC50BEE2D00003530230079
:101BEA009A0006302000C5003030890BFA2DC50B4B
:101BFA00FA2D000031302000C5004508A000303021
:101C0A00C6004608A100453097319A27883120003E
:101C1A008C152100EC01ED012000D301D4013030F4
:101C2A0021002606031D752E20008F1B752E5108D4
:101C3A005204031D752E21006C036D04031D6D2EC5
:101C4A001A302000C500F830890B292EC50B292E21
:101C5A000000523023009A0006302000C5003030C0
:101C6A00890B352EC50B352E0000303023009A0023
:101C7A0006302000C5003030890B412EC50B412E9D
:101C8A000000303023009A0006302000C5003030B2
:101C9A00890B4D2EC50B4D2E0000363023009A00BD
:101CAA0006302000C5003030890B592EC50B592E3D
:101CBA00000030302000C5004508A0003030C600C2
:101CCA004608A100463097319A27883120008C10A7
:101CDA002100EC01ED0101302000D1000030D200DA
:101CEA00303021002606031DD42E20008F1FD42E4B
:101CFA0051035204031DD42E21006C036D04031DED
:101D0A00CE2E1A302000C500F830890B8A2EC50B5A
:101D1A008A2E0000523023009A0006302000C500A7
:101D2A003030890B962EC50B962E000031302300D9
:101D3A009A0006302000C5003030890BA22EC50B50
:101D4A00A22E0000303023009A0006302000C50081
:101D5A003030890BAE2EC50BAE2E00003630230074
:101D6A009A0006302000C5003030890BBA2EC50B08
:101D7A00BA2E000031302000C5004508A0003030DE
:101D8A00C6004608A100463097319A2788312000BC
:101D9A008C142100EC01ED012000D101D201303078
:101DAA0021002706031D812F20000F1B812F4F08BA
:101DBA005004031D812F21006C036D04031D792F2C
:101DCA001A302000C500F830890BE92EC50BE92E20
:101DDA000000523023009A0006302000C50030303F
:101DEA00890BF52EC50BF52E0000303023009A0022
:101DFA0006302000C5003030890B012FC50B012F9A
:101E0A000000303023009A0006302000C500303030
:101E1A00890B0D2FC50B0D2F0000373023009A00B8
:101E2A0006302000C5003030890B192FC50B192F39
:101E3A00000034302000C500F130890B222FC50B79
:101E4A00222F003230302000C5004508A000303073
:101E5A00C6004608A100503097319A27883134309D
:101E6A002000C500F130890B382FC50B382F0032FE
:101E7A0020000D120B302000C6002630C5005D3050
:101E8A00890B452FC50B452FC60B452F0032200065
:101E9A000D110B302000C6002630C5005D30890BBD
:101EAA00542FC50B542FC60B542F003220000D108F
:101EBA000B302000C6002630C5005D30890B632F29
:101ECA00C50B632FC60B632F003220000C160B3094
:101EDA002000C6002630C5005D30890B722FC50B65
:101EEA00722FC60B722F00322100EC01ED01013076
:101EFA002000CF000030D000303021002706031D1B
:101F0A00E72820000F1FE7284F035004031DE72886
:101F1A0021006C036D04031DF92F1A302000C5003F
:101F2A00F830890B962FC50B962F000052302300EC
:101F3A009A0006302000C5003030890BA22FC50B4D
:101F4A00A22F0000313023009A0006302000C5007D
:101F5A003030890BAE2FC50BAE2F00003030230076
:101F6A009A0006302000C5003030890BBA2FC50B05
:101F7A00BA2F0000373023009A0006302000C5002F
:101F8A003030890BC62FC50BC62F00003430200015
:101F9A00C500F130890BCF2FC50BCF2F003231305E
:101FAA002000C5004508A0003130C6004608A1003F
:101FBA00503097319A27883134302000C500F130EB
:101FCA00890BE52FC50BE52F003220000C120B30D0
:101FDA002000C6002630C5005D30890BF22FC50BE4
:101FEA00F22FC60BF22F00322100EC01ED01200086
:101FFA00CF01D001E7288231DA2A8231E22A8231FE
:10200A00EA2A8231F22A8231FA2A8331022B833177
:06201A000A2B8431A62C04
:102B72006400800101310130FE020030FF3B7F081A
:102B82007E0403190034BA2DFE0012001E0001302B
:102B9200FE020030FF3B7F087E0403190034C62D7D
:102BA20020008D108E100C1025008C1020008C112E
:102BB2008C100C120D120D110D1008002000A10036
:102BC200A0013A3021020318EC2D30302102031CFF
:102BD200EC2DA001A00A200C080028008D0129007C
:102BE2008D0128008C012300900124009001230014
:102BF2008F0124008F0123008D0124008D01230009
:102C02008C0108002100941214120A302900970046
:102C12009030950024309600A0309300013094004B
:102C22008B170B172100941629009616951708008A
:102C32002100911211120A3023009F0090309D0052
:102C420024309E00A0309B0001309C008B170B1794
:102C52002100911623009E169D170800F900F70126
:102C6200F8010430770678040319080023009E1C3B
:102C7200372E79088600870101089A000130F60094
:102C82007608F9070130F7070030F83D322E2000B0
:102C9200A401A501201C512E2208A4072308A53D4A
:102CA2000130A235A30D890B522E0130A136A00CA2
:102CB200890B572E20082104031D4B2E2508A10045
:102CC2002408A00008002000A201A301043022066B
:102CD20023040319080023009E1C6C2E20002008E8
:102CE200860021088700010823009A000130200095
:102CF200A0070030A13D0130A2070030A33D672E9E
:102D02002000A300A101A20104302106220403191C
:102D1200080023009E1C8A2E2000230886008701BB
:102D2200010823009A0001302000A0002008A30718
:102D32000130A1070030A23D852E9531D125963173
:102D42009531EE25963126000C158C150C168C1635
:102D52000C1721008F170F178F168D108E100C1065
:102D620026008C1021008C118C100C120D120D11EA
:102D72000D100E138E1726008D108D149531D1254E
:102D8200080030343034303430343034303430347D
:102D92003034303430343034303430343034303411
:102DA2003034303430343034303430343034303401
:102DB20030343034303430343034303430343034F1
:102DC2000034233400342334003402302000A100C4
:102DD2000030A2000230A1000030A2002208803A96
:102DE200A00080302002031DF82E093021020318B2
:102DF200080020002108203E8600013087000108DB
:102E0200A0002108FE3E583E8600013087002008BF
:102E120081002330A0002108203E86000130870077
:102E2200200881000130A1070030A23DEF2E0230C0
:102E32002000A1000030A2000230A1000030A20058
:102E42002208803AA00080302002031D2A2F05307C
:102E520021020318080020002108A03E860001304C
:102E620087000108A0002108FE3E403E8600013096
:102E72008700200881000030A0002108A03E8600C3
:102E820001308700200881000130A1070030A23DF7
:102E9200212F233400340034003400340034003451
:102EA2000034003400340034003400340034003480
:102EB2000034003400340034003400340034003470
:102EC2000034003400340034003400340034003460
:102ED200003423340034003400340034003400342D
:102EE2000034003400340034003400340034003440
:102EF2000034003400340034003400340034003430
:102F020000342334003400340034003400340034FC
:102F1200003400340034003400340034003400340F
:102F220000340034003400340034003400340034FF
:102F320000342000A3001A302000A200F830890BD0
:102F4200A02FA20BA02F00002830290092000630EB
:102F52002000A2003030890BAC2FA20BAC2F000056
:102F620066302900920006302000A2003030890B22
:102F7200B82FA20BB82F00002000230829009200CE
:102F820006302000A2003030890BC52FA20BC52FBE
:102F92000000200020082900920006302000A20034
:102FA2003030890BD22FA20BD22F00002000210833
:102FB2002900920006302000A2003030890BDF2F5A
:102FC200A20BDF2F000030302900920006302000D3
:102FD200A2003030890BEB2FA20BEB2F0000303018
:102FE2002900920006302000A2003030890BF72F12
:102FF200A20BF72F00002930290092000800233489
:02300200003498
:020000040001F9
:04000E00A2C9FFDDA7
:00000001FF
