:0400000082319F2A80
:100008007E14803120007F08FB00941E7E28290082
:10001800951C2428151215164530FA007A08F100A7
:100028005230FA007A08F2004F30FA007A08F300EA
:100038005630FA007A08F40071308F31E7278031A2
:100048002900151D3D28151215165230FA007A0898
:10005800F1004530FA007A08F2005230FA007A08C6
:10006800F3005230FA007A08F40071308F31E72734
:10007800803129001108FA0020005A08B83E86008D
:1000880087017A088100283021003806031D64287A
:1000980001302000DA070030DB3D5B08803AFA00C7
:1000A80080307A02083003195A02031C7E28013076
:1000B8002000D8000030D900DA01DB0194127E2834
:1000C8002900151215162000DA01DB014530FA0067
:1000D8007A08F1005230FA007A08F2005230FA0039
:1000E8007A08F3005430FA007A08F40071308F313E
:1000F800E72780312000911EDD2823009D1C9A28C7
:100108001D121D164530FA007A08F1005230FA0027
:100118007A08F2004F30FA007A08F3005630FA00F5
:100128007A08F40071308F31E727803123001908ED
:10013800FA0020005E08203E8600013087007A0819
:100148008100253022002006031DC328013020002D
:10015800DE070030DF3D5F08803AFA0080307A021F
:10016800031DB82810305E02031CDD280130200072
:10017800DC000030DD00DE01DF019112DD28230004
:100188001D121D162000DE01DF014530FA007A0835
:10019800F1005230FA007A08F2005230FA007A0878
:1001A800F3005830FA007A08F40071308F31E727ED
:1001B80080312100131CE7282000131CE7281310A6
:1001C8009016280013102100111CF7282000111C7C
:1001D800F72811109012FF3028009200D8309100B3
:1001E8001314200018102000141B141F9B2A14132A
:1001F8005603570403198E2A9B2A7B30192A7C3010
:100208001D2A7D30970088307B2A7F309700183070
:100218007B2A8030372A81303B2A8330432A833037
:100228009700C8307B2A30298530970058307B2AC0
:100238007008D03E031C9B2A84000A30040203186D
:100248009B2A88310435003E82009B2A86304B2A3F
:1002580086309700E8307B2A87304F2A8830532A27
:100268008930572A8A30970008307B2A8A30692AD1
:100278008B30970098307B2A8C306D2A8D30970010
:1002880028307B2A7008D03E031C9B2A84000A3041
:10029800040203189B2A88310435143E82009B2AE5
:1002A8008D30712A8E309700B8307B2A8F30752AAE
:1002B8009030970048307B2A9130792A9130970006
:1002C800D8307B2A9230152A9330970068307B2AE1
:1002D8009430192A94309700F8307B2A7008D03E61
:1002E800031C9B2A84000A30040203189B2A8831C5
:1002F8000435283E82009B2A95301D2A9730212AF2
:100308009830332A9A303B2A9C30432A9D30472A1A
:100318009F304B2AA0304F2AA230572AA330692A8F
:100328007008D03E031C9B2A84000A30040203187C
:100338009B2A883104353C3E82009B2AA5306D2AD1
:10034800A630712AA830752AAA30792AAB30152A26
:10035800AD30192AAE301D2AB030212AB130332AE7
:10036800B3303B2A7008D03E031C9B2A84000A3015
:10037800040203189B2A88310435503E82009B2AC8
:10038800B530432AB630472AB8304B2AB9304F2AFD
:10039800BB30572ABC30692ABE306D2ABF30712A5B
:1003A800C130752AC330792A7008D03E031C9B2AB5
:1003B80084000A30040203189B2A88310435643EFD
:1003C80082009B2AC430152AC630192AC7301D2A34
:1003D800C930212ACA30332ACC303B2ACE30432AAE
:1003E800CF30472AD1304B2AD2304F2A7008D03E1E
:1003F800031C9B2A84000A30040203189B2A8831B4
:100408000435783E82009B2AD430572AD530692A91
:10041800D7306D2AD830712ADA30752ADC30792A3B
:10042800DD309700A0307B2ADF30970030307B2A00
:10043800E0309700C0307B2AE230970050307B2AAA
:100448007008D03E031C9B2A84000A30040203185B
:100458009B2A883104358C3E82009B2AE330970022
:10046800E0307B2AE4309700A8307B2AE5309700FB
:1004780070307B2AE630970038307B2AE7309700C7
:1004880096017C2AE830970090307B2AEA30970062
:1004980020307B2AEB309700B0307B2AEC30970075
:1004A80078307B2AED30970040307B2A7008D03EA8
:1004B800031C9B2A84000A30040203189B2A8831F3
:1004C8000435A03E82009B2AEE309700D0307B2A6C
:1004D800F030970060307B2AF1309700F0307B2AAB
:1004E800F330970080307B2AF53097001030960063
:1004F80018149B2A90129B2A7008D03E031C9B2A32
:1005080084000A30040203189B2A88310435B43E5B
:1005180082009B2A5508D03E031C9B2A84000A307F
:10052800040203189B2A88310435C83E82007B08E0
:10053800FF007E1009008231A12A4D3084008F30DF
:100548008500703086000030870006308F314727DD
:100558008231743084008F30850049308600003045
:1005680087000D308F3147278231C93084008630AB
:100578008500A0308600003087003C308F31472747
:1005880082317F308400863085002030860001303B
:1005980087004A308F314727D601D701D801D901C2
:1005A800DA01DB01DC01DD01DE01DF01E001E1014F
:1005B8007E1020008231E02A01302000E80000305F
:1005C800E9000130E6000030E70001302100E400D6
:1005D8000030E50001302000E4000030E500013083
:1005E800E2000030E3000C1190168F31A52782310C
:1005F8008F318127823120005C035D04031D912B1C
:10060800DC01DD010130E0000030E100253022008E
:100618002006031D482B25302106031D482B40309A
:100628002E06031D482B40302F06031D482B87310B
:100638003A278231210021082000C3004308AE0078
:10064800210022082000C4004408AF00210023082C
:100658002000C5004508B000210024082000C6007D
:100668004608B100210025082000C7004708B2004D
:10067800210026082000C8004808B30021002008EF
:10068800843169248231912B45302000C30043080E
:10069800F1005230C3004308F2004C30C300430855
:1006A800F3005330C3004308F40071308731B82792
:1006B800823123009D131D122100E001E101610830
:1006C800803A2000C30080304302031D6E2B0F3098
:1006D8002100600203188E2B23302000C300210064
:1006E8006008203E86000130870020004308810012
:1006F80001302100E0070030E13D6108803A200028
:10070800C30080304302031D8C2B0F302100600290
:10071800031C702B23001D169D1720005803590435
:10072800031D022CD801D9012100DC01DD01DE0105
:10073800DF0128303806031DBA2B29303F06031D78
:10074800BA2B87316B2782314030200049060319C4
:10075800022C4A08C3004308A3004B08C4004408FD
:10076800A400490885319B258231022C45302000A0
:10077800C3004308F1005230C3004308F2004C3074
:10078800C3004308F3005330C3004308F40071303A
:100798008731B82782312900951315122100E2010B
:1007A800E3016308803A2000C30080304302031D40
:1007B800E02B0830210062020318FF2B23302000B1
:1007C800C30021006208B83E860087012000430864
:1007D800810001302100E2070030E33D6308803AE0
:1007E8002000C30080304302031DFD2B0830210088
:1007F8006202031CE22B29001516951730302100E0
:100808004906031D192C20006403650403198C1E76
:10081800192C3130C3004308A00031308731052737
:10082800823120009016E401E501303021004906AC
:10083800031D322C20006408650403198C1A322C1D
:100848003030C3004308A00031308731052782319A
:10085800200090120130E4000030E5003030210023
:100868004A06031D4C2C200062036304031D4C2C14
:1008780025000C1D4C2C31302000C3004308A0007B
:10088800323087310527823120000C15E201E3015F
:10089800303021004906031DFF2A20006208630446
:1008A800031DFF2A25000C19FF2A30302000C30041
:1008B8004308A000323087310527823120000C110F
:1008C8000130E2000030E300FF2A2000B800BF0139
:1008D800C001BD01BE01B601B701C101C201540882
:1008E800BA005308B9005208BC005108BB003808C8
:1008F800B4003408B9002E08B4003408BA003930FE
:1009080086311426843120002708C0002608BF003D
:100918002F08D03EBD00FF3003180030BE0030085D
:10092800B4003408BB003108B4003408BC003B30C4
:1009380086311426843120002708B7002608B6001F
:100948003208B4003F08D23E86008701340881008F
:100958003F08D23E860087010108B4003F08C83E20
:1009680086008701340881004008B5003F08B400BC
:10097800B435B50DB435B50D3408FC3EC100FF30B3
:10098800353DC2004730B4004108403E8600013082
:100998008700340881000130C1070030C23D2F08AC
:1009A800B4004108403E86000130870034088100C9
:1009B8000130C1070030C23D3808B4004108403E4C
:1009C800860001308700340881000130C1070030FB
:1009D800C23D2E08B4004108403E86000130870021
:1009E80034088100FD30C107FF30C23D3130330685
:1009F800031D8C2D4108403E87319A2784311A30D7
:100A08002000B400F830890B072DB40B072D000027
:100A180028302900920006302000B4003030890BBD
:100A2800132DB40B132D00006230290092000630FC
:100A38002000B4003030890B1F2DB40B1F2D00008F
:100A480020002E08103E2900920006302000B40035
:100A58003030890B2D2DB40B2D2D000020002F08D0
:100A68002900920006302000B4003030890B3A2D5E
:100A7800B40B3A2D000030302900920006302000D7
:100A8800B4003030890B462DB40B462D00003030B1
:100A98002900920006302000B4003030890B522D16
:100AA800B40B522D0000303029009200063020008F
:100AB800B4003030890B5E2DB40B5E2D0000293058
:100AC800290092008C2D20003D0C031C0C110318EA
:100AD8000C1508003E08D7003D08D6007E2D90165C
:100AE80008003008B4003408D5003108B4003408D0
:100AF800F00008003E08003A0319832D9A2D3D089E
:100B0800003A0319732D013A0319752D9A2D08001F
:100B180020004008003A0319922D9A2D3F08013A07
:100B28000319672D033A03196E2D9A2D080020002A
:100B3800AB000130E8000030E9000130E600003089
:100B4800E70001302100E4000030E500013020001A
:100B5800E4000030E5002308D03EAC00FF30031865
:100B68000030AD002B08C03EA900FF30031800304C
:100B7800AA002408D03EA600FF3003180030A700C2
:100B88002908303EA5002508A80060036104031D5C
:100B98000A2EE001E1010800303021004906031D5A
:100BA8000800200068036904031D08002308A50045
:100BB8002508A00031308731052720002C0C031CA4
:100BC8000C1103180C15E801E90108003030210068
:100BD8004A06031D0800200066036704031D080079
:100BE800D601D7012308A5002508A0003230873197
:100BF800052720002C09A500A50EA50D100825061F
:100C0800DF3925069000E601E70108002B08413A84
:100C18000319D02D033A0319EA2D132E08000800F2
:100C28002000AD002D088600870120300106031D35
:100C3800222E0130A8002808AD07162E2D088600A0
:100C480087010930010603191D2EAB01AC01AA0169
:100C58002D08860087012D300106031D382E01302E
:100C6800A8002808AA073F2E2D08860087012B30E8
:100C78000106031D432E0130A8002808AD072D08E2
:100C88008600870101088731F1278631031C6A2E07
:100C980020002C08A1002B08A0000A30A200003078
:100CA800A3008731D527863120002D0886008701CB
:100CB80001082007A80021080318210AA90028080C
:100CC800D03EAB00FF30293DAC003F2E20002A0863
:100CD80003197A2E2B09A8002C09A900A80A0319C0
:100CE800A90A2808A6002908A70008002C08A700B8
:100CF8002B08A600080023340034003400340034E4
:100D0800003400340034003400340034003400343B
:100D1800003400340034003400340034003400342B
:100D2800003400340034003400340034003400341B
:100D380000340034003423340034003400340034E8
:100D480000340034003400340034003400340034FB
:100D580000340034003400340034003400340034EB
:100D680000340034003400340034003400340034DB
:100D780000340034003400340034003400340034CB
:100D88000034003400340034003423340034003498
:100D980000340034003400340034003400340034AB
:100DA800003400340034003400340034003400349B
:100DB8000034003400340034003423340034003468
:100DC800003400340034003400340034003400347B
:100DD80000340034003400340034303430343034DB
:100DE800303430343034303430343034003430340B
:100DF80030343034303430343034303430340034FB
:100E080000342000A200473023009A00063020005A
:100E1800A1003030890B0E2FA10B0E2F00002000EF
:100E2800200823009A0006302000A1003030890BEA
:100E38001B2FA10B1B2F0000303023009A00063017
:100E48002000A1003030890B272FA10B272F00008D
:100E58002000220823009A0006302000A10030302C
:100E6800890B342FA10B342F00000800023020001A
:100E7800A1000030A2000230A1000030A200220828
:100E8800803AA00080302002031D4C2F0930210237
:100E98000318080020002108203E86000130870042
:100EA8000108A0002108FE3EA03E86008701200818
:100EB80081002330A0002108203E860001308700F1
:100EC800200881000130A1070030A23D432F0230E5
:100ED8002000A1000030A2000230A1000030A200D2
:100EE8002208803AA00080302002031D7D2F0530A3
:100EF80021020318080020002108B83E8600870157
:100F08000108A0002108FE3E493E8600870120080E
:100F180081000030A0002108B83E86008701200823
:100F280081000130A1070030A23D742F2000A300EA
:100F3800A101A2010430210622040319080023009C
:100F48009E1CA32F2000230886000130870001087B
:100F580023009A0001302000A0002008A3070130D8
:100F6800A1070030A23D9E2F2000A300A101A201ED
:100F78000430210622040319080023009E1CC12FF7
:100F88002000230886008701010823009A00013009
:100F98002000A0002008A3070130A1070030A23DCF
:100FA800BC2F2000A401A501201CDE2F2208A407C5
:100FB8002308A53D0130A235A30D890BDF2F013091
:100FC800A136A00C890BE42F20082104031DD82F7B
:100FD8002508A1002408A00008002000A100A00105
:100FE8003A3021020318FE2F30302102031CFE2F55
:100FF800A001A00A200C08008131012981310329B0
:10100800813105298131092981310D2981310F2942
:101018008131112981311329813117298131182909
:1010280081312A2981312C29813130298131322994
:10103800813134298131362981313A2981313C295C
:101048008131402981314229813154298131562900
:1010580081315A2981315C298131602981316229A4
:10106800813166298131682981316C2981316E2964
:1010780081318029813182298131842981318629F0
:101088008131882981318A2981318C2981318E29C0
:1010980081319029813192298131A2298131A42974
:1010A8008131A6298131A8298131AA298131AC2928
:1010B8008131AE298131B0298131B2298131B429F8
:1010C8008131C4298131C6298131C8298131CA2990
:1010D8008131CC298131CE298131D0298131D22960
:1010E8008131D4298131D6298131E6298131E82914
:1010F8008131EA298131EC298131EE298131F029C8
:101108008131F2298131F4298131F6298131F82997
:101118008231082A82310A2A82310C2A82310E2A27
:101128008231102A8231122A8231142A8231182AF5
:1011380082311C2A8231202A8231322A8231362A8F
:1011480082313A2A82313E2A8231422A8231462A23
:1011580082314A2A82314E2A8231522A8231562AD3
:101168008231682A82316C2A8231702A8231742A4B
:101178008231782A82317E2A82317E2A82317E2A01
:1011880082317E2A82317E2A81311C298131462989
:1011980081317229813194298131B6298131D82947
:1011A8008131FA298231242A82315A2A8231802ACD
:101E860020000C1190160800FE0012001E00FE0B2A
:101E9600482F00343034233423342334233400349D
:101EA60004302C009C009B019A0120001413210091
:101EB6001417080020009801990197019601111046
:101EC600210011148B170B170800280093019401A9
:101ED6009201910120001310210013148B170B1788
:101EE6000800233400340034003400340034003455
:101EF6000034233400342334003430348F31D12776
:101F06008F318F31BB278F318F315D278F318F31E5
:101F160068278F318F315327080028008D0129004B
:101F26008D0128008C0123009001240090012300DC
:101F36008F0124008F0123008D0124008D012300D1
:101F46008C0108008F3143278F318F3190278F31D5
:101F560021008C1626000C1521000C1190129015EC
:101F66000E138E1726008D100D158F31432708008E
:101F76002100941214120A3029009700903095001F
:101F860024309600A0309300013094008B170B1775
:101F96002100941629009616951708002100911223
:101FA60011120A3023009F0090309D0024309E00BD
:101FB600A0309B0001309C008B170B172100911657
:101FC60023009E169D170800F900F701F80104305A
:101FD600770678040319080023009E1CEF2F790862
:101FE6008600870101089A000130F6007608F90795
:0E1FF6000130F7070030F83DEA2F23340034A5
:020000040001F9
:04000E00A2C9FFDDA7
:00000001FF
