:0400000082319F2A80
:100008007E14803120007F08FB00941E7E28290082
:10001800951C2428151215164530FA007A08F100A7
:100028005230FA007A08F2004F30FA007A08F300EA
:100038005630FA007A08F400713087319027803101
:100048002900151D3D28151215165230FA007A0898
:10005800F1004530FA007A08F2005230FA007A08C6
:10006800F3005230FA007A08F40071308731902793
:10007800803129001108FA0020005A08B83E86008D
:1000880087017A088100283021003806031D64287A
:1000980001302000DA070030DB3D5B08803AFA00C7
:1000A80080307A02083003195A02031C7E28013076
:1000B8002000D8000030D900DA01DB0194127E2834
:1000C8002900151215162000DA01DB014530FA0067
:1000D8007A08F1005230FA007A08F2005230FA0039
:1000E8007A08F3005430FA007A08F4007130873146
:1000F800902780312000911EDD2823009D1C9A281E
:100108001D121D164530FA007A08F1005230FA0027
:100118007A08F2004F30FA007A08F3005630FA00F5
:100128007A08F4007130873190278031230019084C
:10013800FA0020005E08203E8600013087007A0819
:100148008100253022002006031DC328013020002D
:10015800DE070030DF3D5F08803AFA0080307A021F
:10016800031DB82810305E02031CDD280130200072
:10017800DC000030DD00DE01DF019112DD28230004
:100188001D121D162000DE01DF014530FA007A0835
:10019800F1005230FA007A08F2005230FA007A0878
:1001A800F3005830FA007A08F4007130873190274C
:1001B80080312100131CE7282000131CE7281310A6
:1001C8009016280013102100111CF7282000111C7C
:1001D800F72811109012FF3028009200D8309100B3
:1001E8001314200018102000141B141F9B2A14132A
:1001F8005603570403198E2A9B2A7B30192A7C3010
:100208001D2A7D30970088307B2A7F309700183070
:100218007B2A8030372A81303B2A8330432A833037
:100228009700C8307B2A30298530970058307B2AC0
:100238007008D03E031C9B2A84000A30040203186D
:100248009B2A88310435003E82009B2A86304B2A3F
:1002580086309700E8307B2A87304F2A8830532A27
:100268008930572A8A30970008307B2A8A30692AD1
:100278008B30970098307B2A8C306D2A8D30970010
:1002880028307B2A7008D03E031C9B2A84000A3041
:10029800040203189B2A88310435143E82009B2AE5
:1002A8008D30712A8E309700B8307B2A8F30752AAE
:1002B8009030970048307B2A9130792A9130970006
:1002C800D8307B2A9230152A9330970068307B2AE1
:1002D8009430192A94309700F8307B2A7008D03E61
:1002E800031C9B2A84000A30040203189B2A8831C5
:1002F8000435283E82009B2A95301D2A9730212AF2
:100308009830332A9A303B2A9C30432A9D30472A1A
:100318009F304B2AA0304F2AA230572AA330692A8F
:100328007008D03E031C9B2A84000A30040203187C
:100338009B2A883104353C3E82009B2AA5306D2AD1
:10034800A630712AA830752AAA30792AAB30152A26
:10035800AD30192AAE301D2AB030212AB130332AE7
:10036800B3303B2A7008D03E031C9B2A84000A3015
:10037800040203189B2A88310435503E82009B2AC8
:10038800B530432AB630472AB8304B2AB9304F2AFD
:10039800BB30572ABC30692ABE306D2ABF30712A5B
:1003A800C130752AC330792A7008D03E031C9B2AB5
:1003B80084000A30040203189B2A88310435643EFD
:1003C80082009B2AC430152AC630192AC7301D2A34
:1003D800C930212ACA30332ACC303B2ACE30432AAE
:1003E800CF30472AD1304B2AD2304F2A7008D03E1E
:1003F800031C9B2A84000A30040203189B2A8831B4
:100408000435783E82009B2AD430572AD530692A91
:10041800D7306D2AD830712ADA30752ADC30792A3B
:10042800DD309700A0307B2ADF30970030307B2A00
:10043800E0309700C0307B2AE230970050307B2AAA
:100448007008D03E031C9B2A84000A30040203185B
:100458009B2A883104358C3E82009B2AE330970022
:10046800E0307B2AE4309700A8307B2AE5309700FB
:1004780070307B2AE630970038307B2AE7309700C7
:1004880096017C2AE830970090307B2AEA30970062
:1004980020307B2AEB309700B0307B2AEC30970075
:1004A80078307B2AED30970040307B2A7008D03EA8
:1004B800031C9B2A84000A30040203189B2A8831F3
:1004C8000435A03E82009B2AEE309700D0307B2A6C
:1004D800F030970060307B2AF1309700F0307B2AAB
:1004E800F330970080307B2AF53097001030960063
:1004F80018149B2A90129B2A7008D03E031C9B2A32
:1005080084000A30040203189B2A88310435B43E5B
:1005180082009B2A5508D03E031C9B2A84000A307F
:10052800040203189B2A88310435C83E82007B08E0
:10053800FF007E1009008231A12AAE3084008F307E
:100548008500703086000030870006308F31A8277C
:100558008231D53084008F308500493086000030E4
:1005680087000D308F31A8278231683084008630AB
:100578008500A0308600003087003C308F31A827E6
:1005880082311E308400863085002030860001309C
:1005980087004A308F31A827D601D701D801D90161
:1005A800DA01DB01DC01DD01DE01DF01E001E1014F
:1005B8007E1020008431122C2000B800BF01C00139
:1005C800BD01BE01B601B701C101C2015408BA009C
:1005D8005308B9005208BC005108BB003808B400E1
:1005E8003408B9002E08B4003408BA00393085310F
:1005F800B325823120002708C0002608BF002F0835
:10060800D03EBD00FF3003180030BE003008B400F3
:100618003408BB003108B4003408BC003B308531D5
:10062800B325823120002708B7002608B600320813
:10063800B4003F08D23E86008701340881003F0895
:10064800D23E860087010108B4003F08C83E8600F4
:100658008701340881004008B5003F08B400B4356C
:10066800B50DB435B50D3408FC3EC100FF30353D3D
:10067800C2004730B4004108403E86000130870080
:10068800340881000130C1070030C23D2F08B40092
:100698004108403E8600013087003408810001305F
:1006A800C1070030C23D3808B4004108403E86000A
:1006B80001308700340881000130C1070030C23D95
:1006C8002E08B4004108403E8600013087003408F7
:1006D8008100FD30C107FF30C23D31303306031DB4
:1006E800032C4108403E8731392782311A302000D7
:1006F800B400F830890B7E2BB40B7E2B0000283019
:100708002900920006302000B4003030890B8A2B73
:10071800B40B8A2B000062302900920006302000BA
:10072800B4003030890B962BB40B962B00002000B8
:100738002E08103E2900920006302000B400303008
:10074800890BA42BB40BA42B000020002F08290030
:10075800920006302000B4003030890BB12BB40B66
:10076800B12B000030302900920006302000B40080
:100778003030890BBD2BB40BBD2B00003030290065
:10078800920006302000B4003030890BC92BB40B1E
:10079800C92B000030302900920006302000B40038
:1007A8003030890BD52BB40BD52B0000293029000C
:1007B8009200032C20003D0C031C0C1103180C158F
:1007C80008003E08D7003D08D600F52B9016080013
:1007D8003008B4003408D5003108B4003408F000FB
:1007E80008003E08003A0319FA2B112C3D08003A7C
:1007F8000319EA2B013A0319EC2B112C08002000ED
:100808004008003A0319092C112C3F08013A031932
:10081800DE2B033A0319E52B112C080001302000C8
:10082800E8000030E9000130E6000030E700013060
:10083800E4000030E5000130E2000030E300013060
:100848002100E4000030E50020000C1190168731EB
:10085800D52784318F31E227843120005C035D0481
:10086800031DC32CDC01DD010130E0000030E10094
:10087800253022002006031D7A2C25302106031D71
:100888007A2C40302E06031D7A2C40302F06031D8B
:100898007A2C8631D9268431210021082000C30012
:1008A8004308AE00210022082000C4004408AF001D
:1008B800210023082000C5004508B00021002408B5
:1008C8002000C6004608B100210025082000C70006
:1008D8004708B200210026082000C8004808B300D5
:1008E800210020088231E0228431C32C45302000C9
:1008F800C3004308F1005230C3004308F2004C30F3
:10090800C3004308F3005330C3004308F4007130B8
:1009180087315727843123009D131D122100E001E0
:10092800E1016108803A2000C30080304302031DC2
:10093800A02C0F30210060020318C02C23302000A7
:10094800C30021006008203E860001308700200097
:100958004308810001302100E0070030E13D6108D3
:10096800803A2000C30080304302031DBE2C0F30A4
:1009780021006002031CA22C23001D169D172000D5
:1009880058035904031D312CD801D9012100DC0179
:10099800DD01DE01DF0128303806031DEC2C29308B
:1009A8003F06031DEC2C87310A2784314030200094
:1009B80049060319312C4A08C3004308A3004B0811
:1009C800C4004408A4004908853135258431312CF8
:1009D80045302000C3004308F1005230C3004308EB
:1009E800F2004C30C3004308F3005330C3004308FF
:1009F800F400713087315727843129009513151277
:100A08002100E201E3016308803A2000C30080303E
:100A18004302031D122D0830210062020318312DF4
:100A280023302000C30021006208B83E86008701F9
:100A380020004308810001302100E2070030E33D37
:100A48006308803A2000C30080304302031D2F2D25
:100A5800083021006202031C142D29001516951771
:100A6800312C2000AB000130E8000030E9000130F3
:100A7800E6000030E7000130E4000030E500013016
:100A8800E2000030E3002308D03EAC00FF3003183A
:100A98000030AD002B08C03EA900FF30031800301D
:100AA800AA002408D03EA600FF3003180030A70093
:100AB8002908303EA5002508A80060036104031D2D
:100AC800A82DE001E1010800303021004906031D8E
:100AD8000800200068036904031D08002308A50016
:100AE8002508A00031308631A42620002C0C031CD8
:100AF8000C1103180C15E801E901413023009A0094
:100B08000800303021004A06031D08002000660353
:100B18006704031D0800D601D7012308A50025088E
:100B2800A00032308631A42620002C09A500A50E8D
:100B3800A50D10082506DF3925069000E601E70116
:100B4800423023009A00080020002B08413A03197C
:100B5800682D033A0319852DB22D080008002000DE
:100B6800AD002D088600870120300106031DC12D28
:100B78000130A8002808AD07B52D2D08860087018B
:100B8800093001060319BC2DAB01AC01AA012D08DF
:100B9800860087012D300106031DD72D0130A800DE
:100BA8002808AA07DE2D2D08860087012B300106AC
:100BB800031DE22D0130A8002808AD072D08860086
:100BC800870101088F31F1278531031C092E200088
:100BD8002C08A1002B08A0000A30A2000030A300B6
:100BE80087317427853120002D0886008701010888
:100BF8002007A80021080318210AA9002808D03EC8
:100C0800AB00FF30293DAC00DE2D20002A08031977
:100C1800192E2B09A8002C09A900A80A0319A90A4A
:100C28002808A6002908A70008002C08A7002B08F8
:100C3800A6000800233400340034003400340034A3
:100C480000340034003400340034003400340034FC
:100C580000340034003400340034003400340034EC
:100C680000340034003400340034003400340034DC
:100C780000340034233400340034003400340034A9
:100C880000340034003400340034003400340034BC
:100C980000340034003400340034003400340034AC
:100CA800003400340034003400340034003400349C
:100CB800003400340034003400340034003400348C
:100CC8000034003400340034233400340034003459
:100CD800003400340034003400340034003400346C
:100CE800003400340034003400340034003400345C
:100CF8000034003400340034233400340034003429
:100D0800003400340034003400340034003400343B
:100D1800003400340034003430343034303430346B
:100D280030343034303430343034003430343034CB
:100D380030343034303430343034303400340034EB
:100D48002000A200473023009A0006302000A100AE
:100D58003030890BAD2EA10BAD2E000020002008ED
:100D680023009A0006302000A1003030890BBA2EEB
:100D7800A10BBA2E0000303023009A000630200064
:100D8800A1003030890BC62EA10BC62E0000200012
:100D9800220823009A0006302000A1003030890B79
:100DA800D32EA10BD32E0000080002302000A10092
:100DB8000030A2000230A1000030A2002208803AD0
:100DC800A00080302002031DEB2E093021020318F9
:100DD800080020002108203E860001308700010815
:100DE800A0002108FE3EA03E860087012008810061
:100DF8002330A0002108203E86000130870020080B
:100E080081000130A1070030A23DE22E023020000F
:100E1800A1000030A2000230A1000030A200220888
:100E2800803AA00080302002031D1C2F05302102CB
:100E38000318080020002108B83E86008701010831
:100E4800A0002108FE3E493E860087012008810057
:100E58000030A0002108B83E8600870120088100E4
:100E68000130A1070030A23D132F2000A300A101EB
:100E7800A2010430210622040319080023009E1C45
:100E8800422F200023088600013087000108230034
:100E98009A0001302000A0002008A3070130A10714
:100EA8000030A23D3D2F2000A300A101A201043083
:100EB800210622040319080023009E1C602F20002D
:100EC800230886008701010823009A0001302000CA
:100ED800A0002008A3070130A1070030A23D5B2F26
:100EE8002000A401A501201C7D2F2208A4072308A7
:100EF800A53D0130A235A30D890B7E2F0130A13607
:100F0800A00C890B832F20082104031D772F2508A7
:100F1800A1002408A0000800F900F701F801043036
:100F2800770678040319080023009E1C982F790877
:100F38008600870101089A000130F6007608F90753
:100F48000130F7070030F83D932F2100911211125C
:100F58000A3023009F0090309D0024309E00A0306E
:100F68009B0001309C008B170B1721009116230062
:100F78009E169D1708002100941214120A302900A9
:100F880097009030950024309600A03093000130EF
:100F980094008B170B1721009416290096169517A5
:100FA80008008F31A42787318731EB27873121004B
:100FB8008C1626000C1521000C11901290150E139A
:100FC8008E1726008D100D158F31A42708002800D4
:100FD8008D0129008D0128008C0123009001240037
:100FE800900123008F0124008F0123008D0124002C
:100FF8008D0123008C0108008131012981310329E9
:10100800813105298131092981310D2981310F2942
:101018008131112981311329813117298131182909
:1010280081312A2981312C29813130298131322994
:10103800813134298131362981313A2981313C295C
:101048008131402981314229813154298131562900
:1010580081315A2981315C298131602981316229A4
:10106800813166298131682981316C2981316E2964
:1010780081318029813182298131842981318629F0
:101088008131882981318A2981318C2981318E29C0
:1010980081319029813192298131A2298131A42974
:1010A8008131A6298131A8298131AA298131AC2928
:1010B8008131AE298131B0298131B2298131B429F8
:1010C8008131C4298131C6298131C8298131CA2990
:1010D8008131CC298131CE298131D0298131D22960
:1010E8008131D4298131D6298131E6298131E82914
:1010F8008131EA298131EC298131EE298131F029C8
:101108008131F2298131F4298131F6298131F82997
:101118008231082A82310A2A82310C2A82310E2A27
:101128008231102A8231122A8231142A8231182AF5
:1011380082311C2A8231202A8231322A8231362A8F
:1011480082313A2A82313E2A8231422A8231462A23
:1011580082314A2A82314E2A8231522A8231562AD3
:101168008231682A82316C2A8231702A8231742A4B
:101178008231782A82317E2A82317E2A82317E2A01
:1011880082317E2A82317E2A81311C298131462989
:1011980081317229813194298131B6298131D82947
:1011A8008131FA298231242A82315A2A8231802ACD
:101F480020000C1190160800FE0012001E00FE0B67
:101F5800A92F003430342334233423342334003479
:101F680004302C009C009B019A01200014132100CE
:101F78001417080020009801990197019601111083
:101F8800210011148B170B170800280093019401E6
:101F98009201910120001310210013148B170B17C5
:101FA8000800233400340034003400340034003492
:101FB8000034233400342334003430348731A927E3
:101FC8008F318731BF278F318F31BE278F318F31C6
:101FD800C9278F318F31B42708002000A100A00144
:101FE8003A3021020318FE2F30302102031CFE2F45
:0C1FF800A001A00A200C080023340034D3
:020000040001F9
:04000E00A2C9FFDDA7
:00000001FF
